{
  "contractName": "StakingApp",
  "abi": [
    {
      "inputs": [
        {
          "internalType": "contract RWRDToken",
          "name": "_rwrdToken",
          "type": "address"
        }
      ],
      "stateMutability": "nonpayable",
      "type": "constructor"
    },
    {
      "anonymous": false,
      "inputs": [
        {
          "indexed": false,
          "internalType": "address",
          "name": "from",
          "type": "address"
        },
        {
          "indexed": true,
          "internalType": "address",
          "name": "to",
          "type": "address"
        },
        {
          "indexed": false,
          "internalType": "uint256",
          "name": "value",
          "type": "uint256"
        }
      ],
      "name": "Claim",
      "type": "event"
    },
    {
      "anonymous": false,
      "inputs": [
        {
          "indexed": true,
          "internalType": "address",
          "name": "from",
          "type": "address"
        },
        {
          "indexed": false,
          "internalType": "address",
          "name": "to",
          "type": "address"
        },
        {
          "indexed": false,
          "internalType": "uint256",
          "name": "value",
          "type": "uint256"
        },
        {
          "indexed": false,
          "internalType": "uint256",
          "name": "stakingSlot",
          "type": "uint256"
        },
        {
          "indexed": false,
          "internalType": "uint256",
          "name": "momentStaked",
          "type": "uint256"
        }
      ],
      "name": "Stake",
      "type": "event"
    },
    {
      "anonymous": false,
      "inputs": [
        {
          "indexed": false,
          "internalType": "address",
          "name": "from",
          "type": "address"
        },
        {
          "indexed": true,
          "internalType": "address",
          "name": "to",
          "type": "address"
        },
        {
          "indexed": false,
          "internalType": "uint256",
          "name": "value",
          "type": "uint256"
        },
        {
          "indexed": false,
          "internalType": "uint256",
          "name": "lockedBalance",
          "type": "uint256"
        }
      ],
      "name": "Unstake",
      "type": "event"
    },
    {
      "inputs": [
        {
          "internalType": "address",
          "name": "",
          "type": "address"
        }
      ],
      "name": "amountPayable",
      "outputs": [
        {
          "internalType": "uint256",
          "name": "",
          "type": "uint256"
        }
      ],
      "stateMutability": "view",
      "type": "function",
      "constant": true
    },
    {
      "inputs": [
        {
          "internalType": "address",
          "name": "",
          "type": "address"
        },
        {
          "internalType": "uint256",
          "name": "",
          "type": "uint256"
        }
      ],
      "name": "ethBalances",
      "outputs": [
        {
          "internalType": "uint256",
          "name": "amountEth",
          "type": "uint256"
        },
        {
          "internalType": "uint256",
          "name": "timeStaked",
          "type": "uint256"
        }
      ],
      "stateMutability": "view",
      "type": "function",
      "constant": true
    },
    {
      "inputs": [],
      "name": "name",
      "outputs": [
        {
          "internalType": "string",
          "name": "",
          "type": "string"
        }
      ],
      "stateMutability": "view",
      "type": "function",
      "constant": true
    },
    {
      "inputs": [],
      "name": "owner",
      "outputs": [
        {
          "internalType": "address",
          "name": "",
          "type": "address"
        }
      ],
      "stateMutability": "view",
      "type": "function",
      "constant": true
    },
    {
      "inputs": [],
      "name": "rwrdToken",
      "outputs": [
        {
          "internalType": "contract RWRDToken",
          "name": "",
          "type": "address"
        }
      ],
      "stateMutability": "view",
      "type": "function",
      "constant": true
    },
    {
      "inputs": [],
      "name": "TokenBalance",
      "outputs": [],
      "stateMutability": "view",
      "type": "function",
      "constant": true
    },
    {
      "inputs": [
        {
          "internalType": "uint256",
          "name": "_amount",
          "type": "uint256"
        }
      ],
      "name": "stakeETH",
      "outputs": [],
      "stateMutability": "payable",
      "type": "function",
      "payable": true
    },
    {
      "inputs": [],
      "name": "unstakeETH",
      "outputs": [],
      "stateMutability": "nonpayable",
      "type": "function"
    },
    {
      "inputs": [],
      "name": "claimTokens",
      "outputs": [],
      "stateMutability": "nonpayable",
      "type": "function"
    }
  ],
  "bytecode": "0x60806040526040518060400160405280601081526020017f5374616b696e6720436f6e74726163740000000000000000000000000000000081525060009080519060200190620000519291906200010e565b503480156200005f57600080fd5b5060405162001a3e38038062001a3e83398181016040528101906200008591906200023c565b80600260006101000a81548173ffffffffffffffffffffffffffffffffffffffff021916908373ffffffffffffffffffffffffffffffffffffffff16021790555033600160006101000a81548173ffffffffffffffffffffffffffffffffffffffff021916908373ffffffffffffffffffffffffffffffffffffffff16021790555050620002d3565b8280546200011c906200029d565b90600052602060002090601f0160209004810192826200014057600085556200018c565b82601f106200015b57805160ff19168380011785556200018c565b828001600101855582156200018c579182015b828111156200018b5782518255916020019190600101906200016e565b5b5090506200019b91906200019f565b5090565b5b80821115620001ba576000816000905550600101620001a0565b5090565b600080fd5b600073ffffffffffffffffffffffffffffffffffffffff82169050919050565b6000620001f082620001c3565b9050919050565b60006200020482620001e3565b9050919050565b6200021681620001f7565b81146200022257600080fd5b50565b60008151905062000236816200020b565b92915050565b600060208284031215620002555762000254620001be565b5b6000620002658482850162000225565b91505092915050565b7f4e487b7100000000000000000000000000000000000000000000000000000000600052602260045260246000fd5b60006002820490506001821680620002b657607f821691505b60208210811415620002cd57620002cc6200026e565b5b50919050565b61175b80620002e36000396000f3fe6080604052600436106100a3576000357c0100000000000000000000000000000000000000000000000000000000900480638da5cb5b116100765780638da5cb5b14610131578063a85770591461015c578063a9bfe5c714610173578063dff83d751461018a578063facea6b1146101c7576100a3565b806306fdde03146100a857806348c54b9d146100d35780636ecc20da146100ea5780637fc3e6b214610106575b600080fd5b3480156100b457600080fd5b506100bd610205565b6040516100ca9190611031565b60405180910390f35b3480156100df57600080fd5b506100e8610293565b005b61010460048036038101906100ff919061108e565b610856565b005b34801561011257600080fd5b5061011b6109b9565b604051610128919061113a565b60405180910390f35b34801561013d57600080fd5b506101466109df565b6040516101539190611176565b60405180910390f35b34801561016857600080fd5b50610171610a05565b005b34801561017f57600080fd5b50610188610e62565b005b34801561019657600080fd5b506101b160048036038101906101ac91906111bd565b610f3f565b6040516101be91906111f9565b60405180910390f35b3480156101d357600080fd5b506101ee60048036038101906101e99190611214565b610f57565b6040516101fc929190611254565b60405180910390f35b60008054610212906112ac565b80601f016020809104026020016040519081016040528092919081815260200182805461023e906112ac565b801561028b5780601f106102605761010080835404028352916020019161028b565b820191906000526020600020905b81548152906001019060200180831161026e57829003601f168201915b505050505081565b60005b600360003373ffffffffffffffffffffffffffffffffffffffff1673ffffffffffffffffffffffffffffffffffffffff168152602001908152602001600020805490508110156105df57600062015180600360003373ffffffffffffffffffffffffffffffffffffffff1673ffffffffffffffffffffffffffffffffffffffff1681526020019081526020016000208381548110610337576103366112de565b5b906000526020600020906002020160010154610353919061136b565b670de0b6b3a7640000600360003373ffffffffffffffffffffffffffffffffffffffff1673ffffffffffffffffffffffffffffffffffffffff16815260200190815260200160002084815481106103ad576103ac6112de565b5b9060005260206000209060020201600001546103c9919061136b565b6103d3919061139c565b11156105cc57600a62015180600360003373ffffffffffffffffffffffffffffffffffffffff1673ffffffffffffffffffffffffffffffffffffffff16815260200190815260200160002083815481106104305761042f6112de565b5b90600052602060002090600202016001015461044c919061136b565b670de0b6b3a7640000600360003373ffffffffffffffffffffffffffffffffffffffff1673ffffffffffffffffffffffffffffffffffffffff16815260200190815260200160002084815481106104a6576104a56112de565b5b9060005260206000209060020201600001546104c2919061136b565b6104cc919061139c565b6104d6919061139c565b600460003373ffffffffffffffffffffffffffffffffffffffff1673ffffffffffffffffffffffffffffffffffffffff1681526020019081526020016000205461052091906113f6565b600460003373ffffffffffffffffffffffffffffffffffffffff1673ffffffffffffffffffffffffffffffffffffffff168152602001908152602001600020819055506000600360003373ffffffffffffffffffffffffffffffffffffffff1673ffffffffffffffffffffffffffffffffffffffff16815260200190815260200160002082815481106105b6576105b56112de565b5b9060005260206000209060020201600101819055505b80806105d79061144c565b915050610296565b506000600460003373ffffffffffffffffffffffffffffffffffffffff1673ffffffffffffffffffffffffffffffffffffffff1681526020019081526020016000205411610662576040517f08c379a0000000000000000000000000000000000000000000000000000000008152600401610659906114e1565b60405180910390fd5b600260009054906101000a900473ffffffffffffffffffffffffffffffffffffffff1673ffffffffffffffffffffffffffffffffffffffff1663a9059cbb33600460003373ffffffffffffffffffffffffffffffffffffffff1673ffffffffffffffffffffffffffffffffffffffff168152602001908152602001600020546040518363ffffffff167c010000000000000000000000000000000000000000000000000000000002815260040161071a929190611501565b6020604051808303816000875af1158015610739573d6000803e3d6000fd5b505050506040513d601f19601f8201168201806040525081019061075d9190611562565b503373ffffffffffffffffffffffffffffffffffffffff167f70eb43c4a8ae8c40502dcf22436c509c28d6ff421cf07c491be56984bd987068600160009054906101000a900473ffffffffffffffffffffffffffffffffffffffff16600460003373ffffffffffffffffffffffffffffffffffffffff1673ffffffffffffffffffffffffffffffffffffffff16815260200190815260200160002054604051610807929190611501565b60405180910390a26000600460003373ffffffffffffffffffffffffffffffffffffffff1673ffffffffffffffffffffffffffffffffffffffff16815260200190815260200160002081905550565b80341461086257600080fd5b349050600360003373ffffffffffffffffffffffffffffffffffffffff1673ffffffffffffffffffffffffffffffffffffffff16815260200190815260200160002060405180604001604052803481526020014281525090806001815401808255809150506001900390600052602060002090600202016000909190919091506000820151816000015560208201518160010155505060004290503373ffffffffffffffffffffffffffffffffffffffff167f4b22ccaaeb4846ec98072623a51a9070bf1f01c75ac1f8119035f373df852a0c600160009054906101000a900473ffffffffffffffffffffffffffffffffffffffff1684600360003373ffffffffffffffffffffffffffffffffffffffff1673ffffffffffffffffffffffffffffffffffffffff16815260200190815260200160002080549050856040516109ad949392919061158f565b60405180910390a25050565b600260009054906101000a900473ffffffffffffffffffffffffffffffffffffffff1681565b600160009054906101000a900473ffffffffffffffffffffffffffffffffffffffff1681565b600080600090505b600360003373ffffffffffffffffffffffffffffffffffffffff1673ffffffffffffffffffffffffffffffffffffffff16815260200190815260200160002080549050811015610ada57600360003373ffffffffffffffffffffffffffffffffffffffff1673ffffffffffffffffffffffffffffffffffffffff1681526020019081526020016000208181548110610aa857610aa76112de565b5b90600052602060002090600202016000015482610ac591906113f6565b91508080610ad29061144c565b915050610a0d565b5060008111610b1e576040517f08c379a0000000000000000000000000000000000000000000000000000000008152600401610b1590611620565b60405180910390fd5b60008060005b600360003373ffffffffffffffffffffffffffffffffffffffff1673ffffffffffffffffffffffffffffffffffffffff16815260200190815260200160002080549050811015610d3c5762093a80600360003373ffffffffffffffffffffffffffffffffffffffff1673ffffffffffffffffffffffffffffffffffffffff1681526020019081526020016000208281548110610bc357610bc26112de565b5b9060005260206000209060020201600101541115610cb857600360003373ffffffffffffffffffffffffffffffffffffffff1673ffffffffffffffffffffffffffffffffffffffff1681526020019081526020016000208181548110610c2c57610c2b6112de565b5b90600052602060002090600202016000015483610c4991906113f6565b92506000600360003373ffffffffffffffffffffffffffffffffffffffff1673ffffffffffffffffffffffffffffffffffffffff1681526020019081526020016000208281548110610c9e57610c9d6112de565b5b906000526020600020906002020160000181905550610d29565b600360003373ffffffffffffffffffffffffffffffffffffffff1673ffffffffffffffffffffffffffffffffffffffff1681526020019081526020016000208181548110610d0957610d086112de565b5b90600052602060002090600202016000015482610d2691906113f6565b91505b8080610d349061144c565b915050610b24565b5060008211610d80576040517f08c379a0000000000000000000000000000000000000000000000000000000008152600401610d779061168c565b60405180910390fd5b600160009054906101000a900473ffffffffffffffffffffffffffffffffffffffff1673ffffffffffffffffffffffffffffffffffffffff166108fc839081150290604051600060405180830381858888f19350505050158015610de8573d6000803e3d6000fd5b503373ffffffffffffffffffffffffffffffffffffffff167f18edd09e80386cd99df397e2e0d87d2bb259423eae08645e776321a36fe680ef600160009054906101000a900473ffffffffffffffffffffffffffffffffffffffff168484604051610e55939291906116ac565b60405180910390a2505050565b600260009054906101000a900473ffffffffffffffffffffffffffffffffffffffff1673ffffffffffffffffffffffffffffffffffffffff166370a08231600160009054906101000a900473ffffffffffffffffffffffffffffffffffffffff166040518263ffffffff167c0100000000000000000000000000000000000000000000000000000000028152600401610efb9190611176565b602060405180830381865afa158015610f18573d6000803e3d6000fd5b505050506040513d601f19601f82011682018060405250810190610f3c91906116f8565b50565b60046020528060005260406000206000915090505481565b60036020528160005260406000208181548110610f7357600080fd5b9060005260206000209060020201600091509150508060000154908060010154905082565b600081519050919050565b600082825260208201905092915050565b60005b83811015610fd2578082015181840152602081019050610fb7565b83811115610fe1576000848401525b50505050565b6000601f19601f8301169050919050565b600061100382610f98565b61100d8185610fa3565b935061101d818560208601610fb4565b61102681610fe7565b840191505092915050565b6000602082019050818103600083015261104b8184610ff8565b905092915050565b600080fd5b6000819050919050565b61106b81611058565b811461107657600080fd5b50565b60008135905061108881611062565b92915050565b6000602082840312156110a4576110a3611053565b5b60006110b284828501611079565b91505092915050565b600073ffffffffffffffffffffffffffffffffffffffff82169050919050565b6000819050919050565b60006111006110fb6110f6846110bb565b6110db565b6110bb565b9050919050565b6000611112826110e5565b9050919050565b600061112482611107565b9050919050565b61113481611119565b82525050565b600060208201905061114f600083018461112b565b92915050565b6000611160826110bb565b9050919050565b61117081611155565b82525050565b600060208201905061118b6000830184611167565b92915050565b61119a81611155565b81146111a557600080fd5b50565b6000813590506111b781611191565b92915050565b6000602082840312156111d3576111d2611053565b5b60006111e1848285016111a8565b91505092915050565b6111f381611058565b82525050565b600060208201905061120e60008301846111ea565b92915050565b6000806040838503121561122b5761122a611053565b5b6000611239858286016111a8565b925050602061124a85828601611079565b9150509250929050565b600060408201905061126960008301856111ea565b61127660208301846111ea565b9392505050565b7f4e487b7100000000000000000000000000000000000000000000000000000000600052602260045260246000fd5b600060028204905060018216806112c457607f821691505b602082108114156112d8576112d761127d565b5b50919050565b7f4e487b7100000000000000000000000000000000000000000000000000000000600052603260045260246000fd5b7f4e487b7100000000000000000000000000000000000000000000000000000000600052601260045260246000fd5b7f4e487b7100000000000000000000000000000000000000000000000000000000600052601160045260246000fd5b600061137682611058565b915061138183611058565b9250826113915761139061130d565b5b828204905092915050565b60006113a782611058565b91506113b283611058565b9250817fffffffffffffffffffffffffffffffffffffffffffffffffffffffffffffffff04831182151516156113eb576113ea61133c565b5b828202905092915050565b600061140182611058565b915061140c83611058565b9250827fffffffffffffffffffffffffffffffffffffffffffffffffffffffffffffffff038211156114415761144061133c565b5b828201905092915050565b600061145782611058565b91507fffffffffffffffffffffffffffffffffffffffffffffffffffffffffffffffff82141561148a5761148961133c565b5b600182019050919050565b7f4e6f20546f6b656e7320746f20636c61696d0000000000000000000000000000600082015250565b60006114cb601283610fa3565b91506114d682611495565b602082019050919050565b600060208201905081810360008301526114fa816114be565b9050919050565b60006040820190506115166000830185611167565b61152360208301846111ea565b9392505050565b60008115159050919050565b61153f8161152a565b811461154a57600080fd5b50565b60008151905061155c81611536565b92915050565b60006020828403121561157857611577611053565b5b60006115868482850161154d565b91505092915050565b60006080820190506115a46000830187611167565b6115b160208301866111ea565b6115be60408301856111ea565b6115cb60608301846111ea565b95945050505050565b7f7374616b696e672062616c616e63652063616e6e6f7420626520300000000000600082015250565b600061160a601b83610fa3565b9150611615826115d4565b602082019050919050565b60006020820190508181036000830152611639816115fd565b9050919050565b7f6e6f20756e6c6f636b65642062616c616e636520796574000000000000000000600082015250565b6000611676601783610fa3565b915061168182611640565b602082019050919050565b600060208201905081810360008301526116a581611669565b9050919050565b60006060820190506116c16000830186611167565b6116ce60208301856111ea565b6116db60408301846111ea565b949350505050565b6000815190506116f281611062565b92915050565b60006020828403121561170e5761170d611053565b5b600061171c848285016116e3565b9150509291505056fea2646970667358221220a583d200dc0d3ebe001cb673fddce7a77da94c831d48f652ad33ff94b32ce18064736f6c634300080b0033",
  "immutableReferences": {},
  "source": "// SPDX-License-Identifier: MIT\r\npragma solidity ^0.8.0;\r\n\r\nimport \"./RWRDToken.sol\";\r\nimport \"@openzeppelin/contracts/utils/math/SafeMath.sol\";\r\n\r\ncontract StakingApp {\r\n    string public name = \"Staking Contract\";\r\n    address public owner;\r\n    RWRDToken public rwrdToken;\r\n    event Stake(address indexed from, address to, uint256 value, uint256 stakingSlot, uint256 momentStaked);\r\n    event Unstake(address from, address indexed to, uint256 value, uint256 lockedBalance);\r\n    event Claim(address from, address indexed to, uint256 value);\r\n\r\n    struct ethAndTime {\r\n        uint amountEth;\r\n        uint timeStaked;\r\n    } \r\n    mapping(address => ethAndTime[]) public ethBalances;\r\n    mapping(address => uint) public amountPayable;\r\n\r\n    constructor(RWRDToken _rwrdToken) {\r\n        rwrdToken = _rwrdToken;\r\n        owner = msg.sender;\r\n    }\r\n\r\n    function TokenBalance() public view{\r\n        rwrdToken.balanceOf(owner);\r\n    }\r\n\r\n    function stakeETH(uint _amount) public payable {\r\n\r\n        require(msg.value == _amount);\r\n        _amount = msg.value;\r\n\r\n        ethBalances[msg.sender].push(ethAndTime(msg.value, block.timestamp));\r\n\r\n        uint momentStaked = block.timestamp;\r\n\r\n        emit Stake(msg.sender, owner, _amount, ethBalances[msg.sender].length, momentStaked);\r\n    }\r\n\r\n\r\n    function unstakeETH() public {\r\n\r\n        uint currentBalance;\r\n\r\n        for(uint i = 0; i < ethBalances[msg.sender].length; i++){\r\n            currentBalance = currentBalance + ethBalances[msg.sender][i].amountEth;\r\n        }\r\n\r\n        require(currentBalance > 0, \"staking balance cannot be 0\");\r\n\r\n        uint ethAvaiable;\r\n        uint ethStillStaked;\r\n\r\n        for(uint i = 0; i < ethBalances[msg.sender].length; i++){\r\n            if(ethBalances[msg.sender][i].timeStaked > 7 days) {\r\n                ethAvaiable = ethAvaiable + ethBalances[msg.sender][i].amountEth;\r\n                ethBalances[msg.sender][i].amountEth = 0;\r\n            } else {\r\n                ethStillStaked = ethStillStaked + ethBalances[msg.sender][i].amountEth;\r\n            }\r\n        }\r\n\r\n        require(ethAvaiable > 0, \"no unlocked balance yet\");\r\n\r\n        payable(owner).transfer(ethAvaiable);\r\n\r\n        emit Unstake(owner, msg.sender, ethAvaiable, ethStillStaked);\r\n    }\r\n\r\n    function claimTokens() public {\r\n\r\n        for(uint i = 0; i < ethBalances[msg.sender].length; i++){\r\n            if((ethBalances[msg.sender][i].amountEth / (1 ether)) * (ethBalances[msg.sender][i].timeStaked / 86400) > 0){\r\n                amountPayable[msg.sender] = amountPayable[msg.sender] + (ethBalances[msg.sender][i].amountEth / (1 ether)) * (ethBalances[msg.sender][i].timeStaked / 86400) * 10;\r\n                ethBalances[msg.sender][i].timeStaked = 0;\r\n            }\r\n        }\r\n\r\n        require(amountPayable[msg.sender] > 0, \"No Tokens to claim\");\r\n\r\n        rwrdToken.transfer(msg.sender, amountPayable[msg.sender]);\r\n\r\n        emit Claim(owner, msg.sender, amountPayable[msg.sender]);\r\n\r\n        amountPayable[msg.sender] = 0;\r\n    }\r\n\r\n}\r\n",
  "sourcePath": "C:\\Users\\Arne\\Spool\\contracts\\StakingApp.sol",
  "compiler": {
    "name": "solc",
    "version": "0.8.11+commit.d7f03943.Emscripten.clang"
  },
  "schemaVersion": "3.4.4",
  "updatedAt": "2022-01-14T11:30:43.137Z",
  "networkType": "ethereum",
  "devdoc": {
    "kind": "dev",
    "methods": {},
    "version": 1
  },
  "userdoc": {
    "kind": "user",
    "methods": {},
    "version": 1
  }
}